:100000000C942A000C9481040C94AB040C94D50439
:100010000C9448060C941E060C9447000C94F405AE
:100020000C9447000C94CA050C9447000C944305AB
:100030000C9419050C947E060C9447000C94A806A9
:100040000C9434020C9447000C9447000C94470025
:100050000C94470011241FBECFE5D8E0DEBFCDBF12
:1000600010E0A0E6B0E0E6EEFEE002C005900D92E2
:10007000A63AB107D9F720E0A6EAB0E001C01D9288
:10008000A33BB207E1F70E94F1010C9471070C94B5
:100090000000CF93C0E006C061E085E18C1B0E94A8
:1000A0006A03CF5FC430C0F3CF910895CF93C82FB8
:1000B00060E083E00E946A036C2F661F6627661F5C
:1000C0008AE00E946A03C6FB662760F98BE00E9403
:1000D0006A03C5FB662760F989E00E946A03C4FBD6
:1000E000662760F988E00E946A0361E084E00E946C
:1000F0006A038FEC97E00197F1F700C0000060E021
:1001000084E00E946A038FEC97E00197F1F700C04A
:100110000000C3FB662760F98AE00E946A03C2FB05
:10012000662760F98BE00E946A03C1FB662760F9CD
:1001300089E00E946A036C2F617088E00E946A0364
:1001400061E084E00E946A038FEC97E00197F1F789
:1001500000C0000060E084E00E946A038FEC97E03A
:100160000197F1F700C00000CF910895CF93C82FF9
:1001700061E083E00E946A036C2F661F6627661F9A
:100180008AE00E946A03C6FB662760F98BE00E9442
:100190006A03C5FB662760F989E00E946A03C4FB15
:1001A000662760F988E00E946A0361E084E00E94AB
:1001B0006A038FEC97E00197F1F700C0000060E060
:1001C00084E00E946A038FEC97E00197F1F700C08A
:1001D0000000C3FB662760F98AE00E946A03C2FB45
:1001E000662760F98BE00E946A03C1FB662760F90D
:1001F00089E00E946A036C2F617088E00E946A03A4
:1002000061E084E00E946A038FEC97E00197F1F7C8
:1002100000C0000060E084E00E946A038FEC97E079
:100220000197F1F700C00000CF9108952FE788E310
:1002300091E0215080409040E1F700C0000082E052
:100240000E94560088E20E9456008CE00E945600F0
:1002500081E00E9456008FEC97E00197F1F700C013
:10026000000086E00E9456000895811105C080E8D4
:10027000860F0E9456000895813029F480EC860F85
:100280000E9456000895823029F484E9860F0E9466
:1002900056000895833021F484ED860F0E945600A5
:1002A00008950E94B60008950F931F93CF938C0179
:1002B000C0E003C00E945101CF5FF801EC0FF11DB7
:1002C00080818111F7CFCF911F910F910895CF9326
:1002D000DF93EA010E943501CE010E945401DF91B3
:1002E000CF910895CF92DF92EF92FF921F93CF9319
:1002F000DF93CDB7DEB760970FB6F894DEBF0FBEC1
:10030000CDBF6B017C01611571058105910521F45B
:1003100080E30E9451013BC099235CF48DE20E946E
:100320005101F094E094D094C094C11CD11CE11C04
:10033000F11C10E015C0C701B6012AE030E040E032
:1003400050E00E945207E1E0F0E0EC0FFD1FE10FEA
:10035000F11D605D60831F5FC22ED32EE42EF52E4B
:10036000C114D104E104F10431F7FF24FA94F10E31
:100370000CC0E1E0F0E0EC0FFD1FEF0DF11DF7FC0C
:10038000FA9580810E945101FA94FF2094F76096BB
:100390000FB6F894DEBF0FBECDBFDF91CF911F9196
:1003A000FF90EF90DF90CF900895CF93DF93D42FFD
:1003B0000E943501C0E004C080E20E945101CF5F7D
:1003C000CD17D0F3DF91CF91089583E50E940F05FB
:1003D0008093B100089583E50E940F058093B100DA
:1003E000089565EE71E080E00E946C048BEE91E070
:1003F0000E9414050E945A030E9416010E9449009F
:100400000E945F0480E00E94ED0378940E947206CF
:1004100080E00E94FF0448E950E060E080E00E9434
:1004200067014FE950E060E081E00E9467016BEEF8
:1004300071E085E090E00E94000745E066E081E021
:100440000E94D50166E081E00E9435016091B10013
:1004500070E080E090E00E9472018FE39CE90197D8
:10046000F1F700C00000E9CF1F920F920FB60F9274
:1004700011242F933F934F935F936F937F938F93A9
:100480009F93AF93BF93EF93FF931092A600E091D9
:100490006000F09161000995FF91EF91BF91AF91DC
:1004A0009F918F917F916F915F914F913F912F918C
:1004B0000F900FBE0F901F901895982F97708695EC
:1004C00086958695613009F455C020F0623009F4B4
:1004D000A1C008958130C1F028F0823039F1833015
:1004E000B9F108954AB321E030E0B90102C0660FC6
:1004F000771F9A95E2F7CB01942F982B9ABB9BB369
:10050000809589238BBB089547B321E030E0B90182
:1005100002C0660F771F9A95E2F7CB01942F982BB4
:1005200097BB98B38095892388BB089544B321E095
:1005300030E0B90102C0660F771F9A95E2F7CB0150
:10054000942F982B94BB95B38095892385BB0895F0
:1005500041B321E030E0B90102C0660F771F9A95E0
:10056000E2F7CB01942F982B91BB92B3809589230E
:1005700082BB08958130C1F028F0823039F1833098
:10058000B9F108954AB321E030E0B90102C0660F25
:10059000771F9A95E2F7CB018095942F98239ABB09
:1005A0009BB389238BBB089547B321E030E0B901A9
:1005B00002C0660F771F9A95E2F7CB018095942FC2
:1005C000982397BB98B3892388BB089544B321E04F
:1005D00030E0B90102C0660F771F9A95E2F7CB01B0
:1005E0008095942F982394BB95B3892385BB089558
:1005F00041B321E030E0B90102C0660F771F9A9540
:10060000E2F7CB018095942F982391BB92B3892375
:1006100082BB08958130C1F028F0823039F18330F7
:10062000B9F108954AB321E030E0B90102C0660F84
:10063000771F9A95E2F7CB01962F909594239ABB5A
:100640009BB3892B8BBB089547B321E030E0B90100
:1006500002C0660F771F9A95E2F7CB01962F90950F
:10066000942397BB98B3892B88BB089544B321E0AA
:1006700030E0B90102C0660F771F9A95E2F7CB010F
:10068000962F9095942394BB95B3892B85BB0895A1
:1006900041B321E030E0B90102C0660F771F9A959F
:1006A000E2F7CB01962F9095942391BB92B3892BBF
:1006B00082BB0895CF93C0E009C0EC2FF0E0E8586A
:1006C000FF4F60818C2F0E945D02CF5FC032A8F384
:1006D000CF910895982F977086958695869561306D
:1006E000E1F5813099F028F08230E9F0833041F172
:1006F00008954BB321E030E0B90102C0660F771FC7
:100700009A95E2F7CB01842B8BBB089548B321E087
:1007100030E0B90102C0660F771F9A95E2F7CB016E
:10072000842B88BB089545B321E030E0B90102C0B5
:10073000660F771F9A95E2F7CB01842B85BB08954E
:1007400042B321E030E0B90102C0660F771F9A95ED
:10075000E2F7CB01842B82BB08958130A1F028F011
:100760008230F9F0833059F108954BB321E030E045
:10077000B90102C0660F771F9A95E2F7CB01809509
:1007800084238BBB089548B321E030E0B90102C057
:10079000660F771F9A95E2F7CB018095842388BB7B
:1007A000089545B321E030E0B90102C0660F771F1C
:1007B0009A95E2F7CB018095842385BB089542B3D7
:1007C00021E030E0B90102C0660F771F9A95E2F789
:1007D000CB018095842382BB0895813041F018F0CD
:1007E000823049F008958BB780648BBF08958BB732
:1007F00080688BBF08958BB780628BBF089581306E
:1008000049F120F0823009F449C00895613069F05F
:1008100028F0623089F06330B1F0089585B78E7F9B
:1008200085BF85B78D7F85BF089585B7816085BFFA
:1008300085B78D7F85BF089585B78E7F85BF85B7C6
:10084000826085BF089585B7816085BF85B7826066
:1008500085BF0895613069F028F0623089F0633017
:10086000B1F0089585B78B7F85BF85B7877F85BF3A
:10087000089585B7846085BF85B7877F85BF089554
:1008800085B78B7F85BF85B7886085BF089585B79D
:10089000846085BF85B7886085BF0895623019F090
:1008A000633029F008C084B78F7B84BF089584B774
:1008B000806484BF089584B78F7B84BF089563E00C
:1008C00080E00E94FF0363E081E00E94FF0363E099
:1008D00082E00E94FF030895813049F018F08230D1
:1008E00059F00895709367006093660008957093BF
:1008F00065006093640008957093630060936200E4
:1009000008951F920F920FB60F9211242F933F93C9
:100910004F935F936F937F938F939F93AF93BF9307
:10092000EF93FF93E0916600F0916700E230F105EC
:1009300009F00995FF91EF91BF91AF919F918F9130
:100940007F916F915F914F913F912F910F900FBECB
:100950000F901F9018951F920F920FB60F921124AF
:100960002F933F934F935F936F937F938F939F93B7
:10097000AF93BF93EF93FF93E0916400F091650014
:10098000E230F10509F00995FF91EF91BF91AF9128
:100990009F918F917F916F915F914F913F912F9197
:1009A0000F900FBE0F901F9018951F920F920FB6C9
:1009B0000F9211242F933F934F935F936F937F93E5
:1009C0008F939F93AF93BF93EF93FF93E091620058
:1009D000F0916300E230F10509F00995FF91EF9184
:1009E000BF91AF919F918F917F916F915F914F9147
:1009F0003F912F910F900FBE0F901F90189581116E
:100A000004C08DB180618DB903C08DB18F7E8DB969
:100A10008DB180648DB98DB180688DB908958FB91D
:100A2000779BFECF8FB10895909369008093680003
:100A300008951F920F920FB60F9211242F933F9398
:100A40004F935F936F937F938F939F93AF93BF93D6
:100A5000EF93FF93E0916800F0916900E230F105B7
:100A600009F00995FF91EF91BF91AF919F918F91FF
:100A70007F916F915F914F913F912F910F900FBE9A
:100A80000F901F9018951F920F920FB60F9211247E
:100A90002F933F934F935F936F937F938F939F9386
:100AA000AF93BF93EF93FF93E0917200F0917300C7
:100AB000E230F10509F00995FF91EF91BF91AF91F7
:100AC0009F918F917F916F915F914F913F912F9166
:100AD0000F900FBE0F901F901895823029F128F4C7
:100AE000882341F0813099F045C0833051F1843042
:100AF000A9F140C08FB58E7F8FBD8FB58D7F8FBD23
:100B00008EB5877F8EBD8EB58F7E8EBD33C08FB57F
:100B10008E7F8FBD8FB58D7F8FBD8EB588608EBD6A
:100B20008EB580618EBD26C08FB58E7F8FBD8FB58F
:100B30008D7F8FBD8EB588608EBD8EB58F7E8EBD4C
:100B400019C08FB58E7F8FBD8FB582608FBD8EB57A
:100B500088608EBD8EB580618EBD0CC08FB5816002
:100B60008FBD8FB582608FBD8EB588608EBD8EB50E
:100B700080618EBD8EB5887F8EBD8EB5682B6EBDB3
:100B8000089589B7806189BF089590936F0080931D
:100B90006E0008951F920F920FB60F9211242F939B
:100BA0003F934F935F936F937F938F939F93AF93F5
:100BB000BF93EF93FF93E0917000F0917100E230EA
:100BC000F10509F00995FF91EF91BF91AF919F91C8
:100BD0008F917F916F915F914F913F912F910F90E6
:100BE0000FBE0F901F9018951F920F920FB60F9285
:100BF00011242F933F934F935F936F937F938F9322
:100C00009F93AF93BF93EF93FF93E0916E00F091AA
:100C10006F00E230F10509F00995FF91EF91BF9166
:100C2000AF919F918F917F916F915F914F913F9184
:100C30002F910F900FBE0F901F9018951F920F923B
:100C40000FB60F9211242F933F934F935F936F939F
:100C50007F938F939F93AF93BF93EF93FF93E09115
:100C60006C00F0916D00E230F10509F00995FF91FB
:100C7000EF91BF91AF919F918F917F916F915F9114
:100C80004F913F912F910F900FBE0F901F9018958D
:100C90001F920F920FB60F9211242F933F934F93F1
:100CA0005F936F937F938F939F93AF93BF93EF93D4
:100CB000FF93E0916A00F0916B00E230F10509F0DA
:100CC0000995FF91EF91BF91AF919F918F917F9186
:100CD0006F915F914F913F912F910F900FBE0F90A9
:100CE0001F90189583E389B98BB18D7F8BB98AB139
:100CF00080618AB98AB188608AB908951F920F927B
:100D00000FB60F9211242F933F934F935F936F93DE
:100D10007F938F939F93AF93BF93EF93FF93E09154
:100D20007600F0917700E230F10509F00995FF9126
:100D3000EF91BF91AF919F918F917F916F915F9153
:100D40004F913F912F910F900FBE0F901F901895CC
:100D50001F920F920FB60F9211242F933F934F9330
:100D60005F936F937F938F939F93AF93BF93EF9313
:100D7000FF93E0917400F0917500E230F10509F005
:100D80000995FF91EF91BF91AF919F918F917F91C5
:100D90006F915F914F913F912F910F900FBE0F90E8
:100DA0001F9018958091A7009091A800A091A9008C
:100DB000B091AA000196A11DB11D8093A700909348
:100DC000A800A093A900B093AA004091AD00509153
:100DD000AE006091AF007091B00084179507A60730
:100DE000B70769F41092A7001092A8001092A9000A
:100DF0001092AA00E091AB00F091AC000995089523
:100E00000F931F93CF93DF938C01EB0162E082E09D
:100E10000E946D0587EE93E09BBD8ABD28EE33E00E
:100E2000029FC001039F900D129F900D1124A0E01E
:100E3000B0E08093AD009093AE00A093AF00B0936C
:100E4000B000D093AC00C093AB0082ED96E00E945E
:100E5000C5050E94C105DF91CF911F910F910895A3
:100E6000A1E21A2EAA1BBB1BFD010DC0AA1FBB1FAE
:100E7000EE1FFF1FA217B307E407F50720F0A21B20
:100E8000B30BE40BF50B661F771F881F991F1A948D
:100E900069F760957095809590959B01AC01BD01B7
:100EA000CF010895052E97FB1EF400940E94690758
:100EB00057FD07D00E94300707FC03D04EF40C9476
:100EC000690750954095309521953F4F4F4F5F4FA3
:100ED000089590958095709561957F4F8F4F9F4FA6
:060EE0000895F894FFCF15
:100EE60002000200020002000200020002000200EC
:100EF60002000200020002000101010000000000E1
:100F060000000000000001000000000000000000DA
:100F160001000102020202026D61737465720052E1
:060F26006561643A000061
:00000001FF
