:100000000C942A000C9447000C9447000C94470071
:100010000C9447000C9447000C9447000C94470044
:100020000C9447000C9447000C9447000C94470034
:100030000C9465040C9447000C9447000C94470002
:100040000C9492020C9447000C9447000C944700C7
:100050000C94470011241FBECFE5D8E0DEBFCDBF12
:1000600010E0A0E6B0E0E2ECF9E002C005900D92ED
:10007000A039B107D9F720E0A0E9B0E001C01D9296
:10008000A339B207E1F70E9431020C94DF040C940B
:100090000000CF93C82F60E083E00E94C8036C2F5C
:1000A000661F6627661F8AE00E94C803C6FB662794
:1000B00060F98BE00E94C803C5FB662760F989E000
:1000C0000E94C803C4FB662760F988E00E94C80349
:1000D00061E084E00E94C8038FEC97E00197F1F79C
:1000E00000C0000060E084E00E94C8038FEC97E04D
:1000F0000197F1F700C00000C3FB662760F98AE0B2
:100100000E94C803C2FB662760F98BE00E94C80307
:10011000C1FB662760F989E00E94C8036C2F6170FB
:1001200088E00E94C80361E084E00E94C8038FEC6D
:1001300097E00197F1F700C0000060E084E00E94C2
:10014000C8038FEC97E00197F1F700C00000CF9152
:100150000895CF93C82F61E083E00E94C8036C2FFD
:10016000661F6627661F8AE00E94C803C6FB6627D3
:1001700060F98BE00E94C803C5FB662760F989E03F
:100180000E94C803C4FB662760F988E00E94C80388
:1001900061E084E00E94C8038FEC97E00197F1F7DB
:1001A00000C0000060E084E00E94C8038FEC97E08C
:1001B0000197F1F700C00000C3FB662760F98AE0F1
:1001C0000E94C803C2FB662760F98BE00E94C80347
:1001D000C1FB662760F989E00E94C8036C2F61703B
:1001E00088E00E94C80361E084E00E94C8038FECAD
:1001F00097E00197F1F700C0000060E084E00E9402
:10020000C8038FEC97E00197F1F700C00000CF9191
:1002100008952FE788E391E0215080409040E1F776
:1002200000C0000082E00E94490088E20E9449006C
:100230008CE00E94490081E00E9449008FEC97E029
:100240000197F1F700C0000086E00E944900089580
:10025000811105C080E8860F0E9449000895813011
:1002600029F480EC860F0E9449000895823029F419
:1002700084E9860F0E9449000895833021F484EDBB
:10028000860F0E94490008950E94A90008950F93C7
:100290001F93CF938C01C0E003C00E944401CF5F45
:1002A000F801EC0FF11D80818111F7CFCF911F91E3
:1002B0000F910895CF93DF93EA010E942801CE01A8
:1002C0000E944701DF91CF910895CF92DF92EF9284
:1002D000FF921F93CF93DF93CDB7DEB760970FB632
:1002E000F894DEBF0FBECDBF6B017C0161157105B7
:1002F0008105910521F480E30E9444013BC09923CC
:100300005CF48DE20E944401F094E094D094C09497
:10031000C11CD11CE11CF11C10E015C0C701B601C5
:100320002AE030E040E050E00E94B104E1E0F0E07B
:10033000EC0FFD1FE10FF11D605D60831F5FC22E9A
:10034000D32EE42EF52EC114D104E104F10431F7CB
:10035000FF24FA94F10E0CC0E1E0F0E0EC0FFD1F79
:10036000EF0DF11DF7FCFA9580810E944401FA948B
:10037000FF2094F760960FB6F894DEBF0FBECDBF96
:10038000DF91CF911F91FF90EF90DF90CF90089574
:10039000CF93DF93D42F0E942801C0E004C080E2F5
:1003A0000E944401CF5FCD17D0F3DF91CF91089524
:1003B00080919000909191000E945B04089580E0EC
:1003C0000E948302909391008093900046E066E043
:1003D00081E00E94C80166E081E00E9428018091CE
:1003E0009000909191008D3D954078F4209190007F
:1003F00030919100ADECBCEC0E94D00496958795AD
:10040000969587959695879502C086E990E090939A
:10041000910080939000609190007091910080E035
:1004200090E00E9465018091900090919100C297A8
:1004300070F061E080E10E94C8038FEC97E00197C3
:10044000F1F700C0000060E080E10E94C8039FE770
:100450002AE186E0915020408040E1F700C0000092
:10046000089588ED91E00E9460040E94B8030E9404
:10047000090166E081E00E945002789481E00E94C8
:100480004B0444E850E060E080E00E945A014AE8F2
:1004900050E060E081E00E945A010E94DF01FDCF40
:1004A000813059F018F0823079F014C087B18F7B19
:1004B00087B987B18F7787B90DC087B1806487B955
:1004C00087B18F7787B906C087B1806487B987B154
:1004D000806887B986B1887F86B9677086B1682BD6
:1004E00066B986B1806886B9089597B1907E97B94C
:1004F00097B1892B87B986B1806486B93699FECFCA
:1005000084B195B108950E9475029C01A8E8B3E1F9
:100510000E94D0042FEF33E040E050E00E948F04AF
:10052000C90108951F920F920FB60F9211242F93B5
:100530003F934F935F936F937F938F939F93AF936B
:10054000BF93EF93FF9310929200E0916000F091BF
:1005500061000995FF91EF91BF91AF919F918F91AC
:100560007F916F915F914F913F912F910F900FBEAF
:100570000F901F901895982F977086958695869561
:10058000613009F455C020F0623009F4A1C008952B
:100590008130C1F028F0823039F18330B9F108950B
:1005A0004AB321E030E0B90102C0660F771F9A9587
:1005B000E2F7CB01942F982B9ABB9BB380958923AC
:1005C0008BBB089547B321E030E0B90102C0660F4C
:1005D000771F9A95E2F7CB01942F982B97BB98B38E
:1005E0008095892388BB089544B321E030E0B901A8
:1005F00002C0660F771F9A95E2F7CB01942F982BD4
:1006000094BB95B38095892385BB089541B321E0C0
:1006100030E0B90102C0660F771F9A95E2F7CB016F
:10062000942F982B91BB92B38095892382BB089518
:100630008130C1F028F0823039F18330B9F108956A
:100640004AB321E030E0B90102C0660F771F9A95E6
:10065000E2F7CB018095942F98239ABB9BB3892313
:100660008BBB089547B321E030E0B90102C0660FAB
:10067000771F9A95E2F7CB018095942F982397BB2B
:1006800098B3892388BB089544B321E030E0B901D1
:1006900002C0660F771F9A95E2F7CB018095942FE1
:1006A000982394BB95B3892385BB089541B321E07A
:1006B00030E0B90102C0660F771F9A95E2F7CB01CF
:1006C0008095942F982391BB92B3892382BB089580
:1006D0008130C1F028F0823039F18330B9F10895CA
:1006E0004AB321E030E0B90102C0660F771F9A9546
:1006F000E2F7CB01962F909594239ABB9BB3892B5D
:100700008BBB089547B321E030E0B90102C0660F0A
:10071000771F9A95E2F7CB01962F9095942397BB7C
:1007200098B3892B88BB089544B321E030E0B90128
:1007300002C0660F771F9A95E2F7CB01962F90952E
:10074000942394BB95B3892B85BB089541B321E0D5
:1007500030E0B90102C0660F771F9A95E2F7CB012E
:10076000962F9095942391BB92B3892B82BB0895C9
:10077000CF93C0E009C0EC2FF0E0EC59FF4F60814F
:100780008C2F0E94BB02CF5FC032A8F3CF91089597
:10079000982F97708695869586956130E1F5813022
:1007A00099F028F08230E9F0833041F108954BB39D
:1007B00021E030E0B90102C0660F771F9A95E2F799
:1007C000CB01842B8BBB089548B321E030E0B90105
:1007D00002C0660F771F9A95E2F7CB01842B88BB86
:1007E000089545B321E030E0B90102C0660F771FDC
:1007F0009A95E2F7CB01842B85BB089542B321E0A3
:1008000030E0B90102C0660F771F9A95E2F7CB017D
:10081000842B82BB08958130A1F028F08230F9F05A
:10082000833059F108954BB321E030E0B90102C0A3
:10083000660F771F9A95E2F7CB01809584238BBBD7
:10084000089548B321E030E0B90102C0660F771F78
:100850009A95E2F7CB018095842388BB089545B330
:1008600021E030E0B90102C0660F771F9A95E2F7E8
:10087000CB018095842385BB089542B321E030E00D
:10088000B90102C0660F771F9A95E2F7CB018095F8
:10089000842382BB0895811104C08DB180618DB91C
:1008A00003C08DB18F7E8DB98DB180648DB98DB14E
:1008B00080688DB908958FB9779BFECF8FB1089569
:1008C000909363008093620008951F920F920FB679
:1008D0000F9211242F933F934F935F936F937F93C6
:1008E0008F939F93AF93BF93EF93FF93E091620039
:1008F000F0916300E230F10509F00995FF91EF9165
:10090000BF91AF919F918F917F916F915F914F9127
:100910003F912F910F900FBE0F901F901895A1E25D
:100920001A2EAA1BBB1BFD010DC0AA1FBB1FEE1F69
:10093000FF1FA217B307E407F50720F0A21BB30BB4
:10094000E40BF50B661F771F881F991F1A9469F730
:1009500060957095809590959B01AC01BD01CF018C
:100960000895052E97FB1EF400940E94C80457FDBD
:1009700007D00E948F0407FC03D04EF40C94C804E7
:1009800050954095309521953F4F4F4F5F4F0895BB
:1009900090958095709561957F4F8F4F9F4F0895EB
:1009A000A29FB001B39FC001A39F700D811D1124B0
:1009B000911DB29F700D811D1124911D0895F89411
:0209C000FFCF67
:1009C200020002000101010000000000000000001E
:1009D200010100010000000000000000010002020D
:1009E20002020202736C617665004C4D33353A00A7
:00000001FF
